:100000000C942A000C9447000C9447000C94470071
:100010000C94390E0C94060E0C9447000C94470077
:100020000C9447000C94490D0C940F0C0C94DC0BB1
:100030000C9447000C9447000C9447000C94470024
:100040000C9447000C9447000C9447000C94470014
:100050000C94470011241FBECFE5D8E0DEBFCDBF12
:1000600011E0A0E6B0E0E8E9F9E202C005900D92E7
:10007000AA3DB107D9F711E0AAEDB1E001C01D9288
:10008000A43EB107E1F70E940D110C94CA140C9420
:100090000000EF92FF920F931F937B018C0120E0F1
:1000A00030E040E05FE40E94F50388238CF0C80153
:1000B000B70120E030E040E05FE40E94C1010E940F
:1000C000B3049B01AC01205030404040504806C072
:1000D000C801B7010E94B3049B01AC01B901CA0178
:1000E0001F910F91FF90EF900895A0E0B0E0EBE733
:1000F000F0E00C949314DC012B01FA019C919230F6
:1001000008F439C1EB018881823008F433C194309E
:1001100069F4843009F02FC111969C91119789815F
:10012000981709F428C1A2EDB0E025C1843009F484
:1001300021C18230A9F4923009F01DC19A01AD01AC
:1001400088E0EA010990AE01E90109929E0181501F
:10015000C1F7E201898111969C918923818308C1AD
:10016000923009F407C112962D903C901397EB0141
:100170008A819B811496AD90BD90CD90DC901797AD
:10018000EC80FD800E811F819101281B390BB90184
:1001900037FF04C066277727621B730B6032710537
:1001A0000CF061C0121613066CF537014801062EDB
:1001B00004C096948794779467940A94D2F721E0C8
:1001C00030E040E050E004C0220F331F441F551FB1
:1001D0006A95D2F721503040404050402E213F21B7
:1001E00040235123211531054105510521F021E01E
:1001F00030E040E050E079018A01E628F72808293C
:1002000019293CC0232BD1F1260E371E350146019A
:10021000062E04C096948794779467940A94D2F734
:1002200021E030E040E050E004C0220F331F441FC3
:10023000551F6A95D2F721503040404050402A2146
:100240003B214C215D21211531054105510521F04E
:1002500021E030E040E050E059016A01A628B728CB
:10026000C828D9280BC0821593052CF01C01AA249C
:10027000BB24650103C0EE24FF24870111969C91E5
:10028000D20111968C91981709F445C0992339F041
:10029000A80197012A193B094C095D0906C0A6016E
:1002A00095012E193F09400B510B57FD08C01182D3
:1002B0003382228224833583468357831DC081E0A5
:1002C00081833382228288279927DC01821B930B4A
:1002D000A40BB50B84839583A683B7830DC0220F2F
:1002E000331F441F551F24833583468357838281E0
:1002F000938101979383828324813581468157813D
:10030000DA01C9010197A109B1098F5F9F4FAF4F72
:10031000BF4328F30BC0918333822282EA0CFB1C7B
:100320000C1D1D1DE482F5820683178383E0808304
:10033000248135814681578157FF1AC0C901AA27F8
:1003400097FDA095BA2F81709070A070B0705695EF
:10035000479537952795822B932BA42BB52B848318
:100360009583A683B7838281938101969383828349
:10037000DF0101C0D201CD01CDB7DEB7E2E10C94BF
:10038000AF14A0E2B0E0E7ECF1E00C949F146983B5
:100390007A838B839C832D833E834F835887E9E048
:1003A000EE2EF12CEC0EFD1ECE010196B7010E943F
:1003B0002B068E010F5E1F4FCE010596B8010E94DD
:1003C0002B068A8991E089278A8BC701B801AE0183
:1003D000475E5F4F0E9475000E945605A096E6E0BA
:1003E0000C94BB14A0E2B0E0E8EFF1E00C949F1491
:1003F00069837A838B839C832D833E834F835887C5
:10040000F9E0EF2EF12CEC0EFD1ECE010196B701A6
:100410000E942B068E010F5E1F4FCE010596B8017C
:100420000E942B06C701B801AE01475E5F4F0E94D4
:1004300075000E945605A096E6E00C94BB14A0E25D
:10044000B0E0E5E2F2E00C94931469837A838B8345
:100450009C832D833E834F835887CE010196BE0136
:10046000675F7F4F0E942B06CE010596BE016F5E2F
:100470007F4F0E942B069985923088F089898230BF
:10048000C8F0943019F4823051F404C0843029F457
:10049000923081F482ED90E0C6C0923049F420E0C1
:1004A0009A858A89981321E02A87CE010996BBC0D4
:1004B000823049F420E09A858A89981321E02A8BBA
:1004C000CE014196B0C02D843E844F8458886D88FB
:1004D0007E888F88988CEE24FF248701AA24BB2471
:1004E000650140E050E060E070E0E0E0F0E0C10174
:1004F00081709070892BE9F0E60CF71C081D191D1E
:100500009A01AB012A0D3B1D4C1D5D1D80E090E062
:10051000A0E0B0E0E614F7040805190520F481E036
:1005200090E0A0E0B0E0BA01A901480F591F6A1F8E
:100530007B1FAA0CBB1CCC1CDD1C97FE08C081E0F5
:1005400090E0A0E0B0E0A82AB92ACA2ADB2A3196B6
:10055000E032F10549F0660C771C881C991C569412
:10056000479437942794C3CFFA85EA892B893C892D
:100570008B859C85280F391F2E5F3F4F17C0CA01FE
:1005800081709070892B61F016950795F794E79428
:1005900080E090E0A0E0B0E8E82AF92A0A2B1B2BC3
:1005A00076956795579547952F5F3F4F77FDE7CF36
:1005B0000CC0440F551F661F771F17FD4160EE0CDE
:1005C000FF1C001F111F21503040403090E05907A0
:1005D00090E0690790E4790760F32B8F3C8FDB0193
:1005E000CA018F779070A070B07080349105A1051A
:1005F000B10561F447FD0AC0E114F10401051105DC
:1006000029F0405C5F4F6F4F7F4F40781A8EFE1786
:1006100011F081E08A8F4D8F5E8F6F8F78A383E01A
:10062000898FCE0149960E945605A096E2E10C946E
:10063000AF14A8E1B0E0EFE1F3E00C949B14698300
:100640007A838B839C832D833E834F835887B9E0C5
:10065000EB2EF12CEC0EFD1ECE010196B7010E948F
:100660002B068E010F5E1F4FCE010596B8010E942A
:100670002B062985223008F47EC03989323010F4E7
:10068000B8017CC08A859A8989278A87243011F02D
:10069000223031F4231709F06EC062ED70E06EC0B5
:1006A000343039F41D861E861F86188A1C861B86E8
:1006B00004C0323021F484E08987B7015FC02B8504
:1006C0003C858B899C89281B390B3C872B87ED84C3
:1006D000FE840F851889AD88BE88CF88D88CEA142F
:1006E000FB040C051D0540F4EE0CFF1C001F111F40
:1006F000215030403C872B8720E030E040E050E044
:1007000080E090E0A0E0B0E460E070E0EA14FB0478
:100710000C051D0540F0282B392B4A2B5B2BEA18C2
:10072000FB080C091D09B695A79597958795EE0CC2
:10073000FF1C001F111F6F5F7F4F6F31710531F775
:10074000DA01C9018F779070A070B0708034910584
:10075000A105B10561F427FD0AC0E114F10401050A
:10076000110529F0205C3F4F4F4F5F4F20782D87B8
:100770003E874F87588BBE01675F7F4FCB010E943A
:1007800056056896EAE00C94B714A8E1B0E0EBECEB
:10079000F3E00C949F1469837A838B839C832D836D
:1007A0003E834F83588789E0E82EF12CEC0EFD1E26
:1007B000CE010196B7010E942B068E010F5E1F4FDE
:1007C000CE010596B8010E942B068985823040F043
:1007D0008989823028F0C701B8010E94A30601C0B0
:1007E0008FEF6896E6E00C94BB14A8E1B0E0EBEF65
:1007F000F3E00C949F1469837A838B839C832D830D
:100800003E834F83588789E0E82EF12CEC0EFD1EC5
:10081000CE010196B7010E942B068E010F5E1F4F7D
:10082000CE010596B8010E942B068985823040F0E2
:100830008989823028F0C701B8010E94A30601C04F
:100840008FEF6896E6E00C94BB14A8E1B0E0EBE211
:10085000F4E00C949F1469837A838B839C832D83AB
:100860003E834F83588789E0E82EF12CEC0EFD1E65
:10087000CE010196B7010E942B068E010F5E1F4F1D
:10088000CE010596B8010E942B068985823040F082
:100890008989823028F0C701B8010E94A30601C0EF
:1008A00081E06896E6E00C94BB14A8E0B0E0EBE5CC
:1008B000F4E00C949C149B01AC0183E08983DA0181
:1008C000C9018827B7FD83959927AA27BB27B82E8A
:1008D000211531054105510519F482E089833AC09B
:1008E0008823A9F0203080E0380780E0480780E8BE
:1008F000580729F460E070E080E09FEC30C0EE24FF
:10090000FF248701E21AF30A040B150B02C07901D8
:100910008A018EE1C82ED12CDC82CB82ED82FE8250
:100920000F831887C801B7010E94070501971816A1
:10093000190684F4082E04C0EE0CFF1C001F111FC2
:100940000A94D2F7ED82FE820F831887C81AD90A5B
:10095000DC82CB82BA82CE0101960E94560528968F
:10096000E9E00C94B814ACE0B0E0E9EBF4E00C94EE
:10097000A31469837A838B839C83CE010196BE0185
:100980006B5F7F4F0E942B068D81823061F1823038
:1009900050F1843021F48E81882351F12EC02F81B3
:1009A000388537FD20C06E812F3131051CF066235C
:1009B000F9F023C08EE190E0821B930B29853A85E4
:1009C0004B855C8504C056954795379527958A9544
:1009D000D2F76623B1F050954095309521953F4F61
:1009E0004F4F5F4F0EC020E030E040E050E009C0C4
:1009F0002FEF3FEF4FEF5FE704C020E030E040E033
:100A000050E8B901CA012C96E2E00C94BF14EF92B1
:100A1000FF920F931F937B018C0180E0E81680E02A
:100A2000F80681E0080780E0180788F48FEFE816E1
:100A3000F1040105110531F028F088E090E0A0E014
:100A4000B0E017C080E090E0A0E0B0E012C080E02D
:100A5000E81680E0F80680E0080781E0180728F033
:100A600088E190E0A0E0B0E004C080E190E0A0E088
:100A7000B0E020E230E040E050E0281B390B4A0BA8
:100A80005B0B04C016950795F794E7948A95D2F707
:100A9000F701E652FF4F8081281B310941095109B6
:100AA000C9011F910F91FF90EF900895DF92EF928F
:100AB000FF920F931F93FC01E480F580068117815C
:100AC000D1808081823048F480E090E0A0E1B0E005
:100AD000E82AF92A0A2B1B2BA5C0843009F49FC0F1
:100AE000823021F4EE24FF24870105C0E114F104D3
:100AF0000105110519F4E0E0F0E096C06281738110
:100B00009FEF623879070CF05BC022E83FEF261BAD
:100B1000370B2A3131052CF020E030E040E050E086
:100B20002AC0B801A701022E04C076956795579593
:100B300047950A94D2F781E090E0A0E0B0E004C0CD
:100B4000880F991FAA1FBB1F2A95D2F70197A109E9
:100B5000B1098E219F21A023B1230097A105B105E2
:100B600021F081E090E0A0E0B0E09A01AB01282BF9
:100B7000392B4A2B5B2BDA01C9018F779070A0705B
:100B8000B07080349105A105B10539F427FF09C083
:100B9000205C3F4F4F4F5F4F04C0215C3F4F4F4F92
:100BA0005F4FE0E0F0E02030A0E03A07A0E04A0725
:100BB000A0E45A0710F0E1E0F0E079018A0127C0D3
:100BC0006038710564F5FB01E158FF4FD801C7019A
:100BD0008F779070A070B07080349105A105B10539
:100BE00039F4E7FE0DC080E490E0A0E0B0E004C07E
:100BF0008FE390E0A0E0B0E0E80EF91E0A1F1B1F93
:100C000017FF05C016950795F794E794319687E08E
:100C100016950795F794E7948A95D1F705C0EE24C9
:100C2000FF248701EFEFF0E06E2F67956627679549
:100C3000902F9F77D794DD24D7948E2F8695492FB8
:100C4000462B582F5D29B701CA011F910F91FF90C4
:100C5000EF90DF900895FC01DB01408151812281FA
:100C6000622F6F7770E0221F2227221F9381892F26
:100C7000880F822B282F30E0991F9927991F1196F2
:100C80009C93119721153105A9F541155105610571
:100C9000710511F482E037C082E89FEF13969C93B0
:100CA0008E9312979A01AB0167E0220F331F441F06
:100CB000551F6A95D1F783E08C930DC0220F331F27
:100CC000441F551F12968D919C911397019713966F
:100CD0009C938E931297203080E0380780E048077D
:100CE00080E4580758F314962D933D934D935C93ED
:100CF000179708952F3F310579F441155105610586
:100D0000710519F484E08C93089564FF03C081E0B9
:100D10008C9312C01C9210C02F57304013963C93F6
:100D20002E93129783E08C9387E0440F551F661F24
:100D3000771F8A95D1F7706414964D935D936D93E8
:100D40007C93179708951F93DC01FB019C919230CF
:100D500008F447C08081823008F443C0943051F4D5
:100D600011961C91843099F58181682F70E0611B88
:100D700071093FC0843021F0923031F48230B9F1F2
:100D80008181882389F12DC011961C9111978230A1
:100D9000F1F081811817D9F412962D913C91139797
:100DA000828193818217930794F028173907BCF04A
:100DB00014968D919D910D90BC91A02D248135812B
:100DC00046815781281739074A075B0718F4112312
:100DD00041F00AC082179307A407B50740F4112316
:100DE00019F061E070E005C06FEF7FEF02C060E0D6
:100DF00070E0CB011F910895DF93CF93CDB7DEB79D
:100E0000EAE3F0E08EEF8083E7E3F0E08FEF8083AA
:100E1000E4E3F0E08FEF8083E1E3F0E082EB8083B6
:100E2000EBE3F0E08DEF8083E8E3F0E08FEF808389
:100E3000E5E3F0E08FEF8083E2E3F0E082E9808396
:100E4000CF91DF910895DF93CF93CDB7DEB72D9784
:100E50000FB6F894DEBF0FBECDBF89836A834B8384
:100E60008981282F30E03D872C878C859D858130B6
:100E7000910509F44FC02C853D85223031052CF4B5
:100E80008C859D85009771F0EBC02C853D852230C7
:100E9000310509F477C08C859D858330910509F46F
:100EA000A9C0DEC08B81282F30E03B872A878A8546
:100EB0009B850097D1F02A853B852130310509F0CB
:100EC000CFC0ABE3B0E0EBE3F0E08081482F8A8154
:100ED000282F30E081E090E0022E02C0880F991F99
:100EE0000A94E2F7842B8C93BBC0ABE3B0E0EBE356
:100EF000F0E08081482F8A81282F30E081E090E067
:100F0000022E02C0880F991F0A94E2F7809584236D
:100F10008C93A6C08B81282F30E03987288788855D
:100F200099850097D1F0288539852130310509F060
:100F300097C0A8E3B0E0E8E3F0E08081482F8A8121
:100F4000282F30E081E090E0022E02C0880F991F28
:100F50000A94E2F7842B8C9383C0A8E3B0E0E8E323
:100F6000F0E08081482F8A81282F30E081E090E0F6
:100F7000022E02C0880F991F0A94E2F780958423FD
:100F80008C936EC08B81282F30E03F832E838E811F
:100F90009F810097D1F02E813F812130310509F0EA
:100FA0005FC0A5E3B0E0E5E3F0E08081482F8A81EF
:100FB000282F30E081E090E0022E02C0880F991FB8
:100FC0000A94E2F7842B8C934BC0A5E3B0E0E5E3F1
:100FD000F0E08081482F8A81282F30E081E090E086
:100FE000022E02C0880F991F0A94E2F7809584238D
:100FF0008C9336C08B81282F30E03D832C838C81ED
:101000009D810097C9F02C813D812130310541F54A
:10101000A2E3B0E0E2E3F0E08081482F8A81282F4C
:1010200030E081E090E0022E02C0880F991F0A9400
:10103000E2F7842B8C9314C0A2E3B0E0E2E3F0E08B
:101040008081482F8A81282F30E081E090E0022EB5
:1010500002C0880F991F0A94E2F7809584238C932D
:101060002D960FB6F894DEBF0FBECDBFCF91DF91A6
:101070000895DF93CF93CDB7DEB72D970FB6F894D1
:10108000DEBF0FBECDBF89836A834B838981282F42
:1010900030E03D872C878C859D858130910509F452
:1010A0004FC02C853D85223031052CF48C859D85E3
:1010B000009771F0EBC02C853D852230310509F495
:1010C00077C08C859D858330910509F4A9C0DEC069
:1010D0008B81282F30E03B872A878A859B85009764
:1010E000D1F02A853B852130310509F0CFC0AAE334
:1010F000B0E0EAE3F0E08081482F8A81282F30E0D9
:1011000081E090E0022E02C0880F991F0A94E2F756
:10111000842B8C93BBC0AAE3B0E0EAE3F0E08081CB
:10112000482F8A81282F30E081E090E0022E02C013
:10113000880F991F0A94E2F7809584238C93A6C0A8
:101140008B81282F30E039872887888599850097FB
:10115000D1F0288539852130310509F097C0A7E302
:10116000B0E0E7E3F0E08081482F8A81282F30E06B
:1011700081E090E0022E02C0880F991F0A94E2F7E6
:10118000842B8C9383C0A7E3B0E0E7E3F0E0808199
:10119000482F8A81282F30E081E090E0022E02C0A3
:1011A000880F991F0A94E2F7809584238C936EC070
:1011B0008B81282F30E03F832E838E819F81009783
:1011C000D1F02E813F812130310509F05FC0A4E3C9
:1011D000B0E0E4E3F0E08081482F8A81282F30E0FE
:1011E00081E090E0022E02C0880F991F0A94E2F776
:1011F000842B8C934BC0A4E3B0E0E4E3F0E0808167
:10120000482F8A81282F30E081E090E0022E02C032
:10121000880F991F0A94E2F7809584238C9336C037
:101220008B81282F30E03D832C838C819D8100971A
:10123000C9F02C813D812130310541F5A1E3B0E0B9
:10124000E1E3F0E08081482F8A81282F30E081E0BF
:1012500090E0022E02C0880F991F0A94E2F7842BB7
:101260008C9314C0A1E3B0E0E1E3F0E08081482F6B
:101270008A81282F30E081E090E0022E02C0880FA2
:10128000991F0A94E2F7809584238C932D960FB6CC
:10129000F894DEBF0FBECDBFCF91DF910895DF93ED
:1012A000CF9300D000D00F92CDB7DEB78A836B8387
:1012B00019828A81282F30E03D832C834C815D8107
:1012C0004130510541F18C819D818230910534F48A
:1012D0002C813D812115310561F052C04C815D8129
:1012E0004230510551F18C819D8183309105B9F1D6
:1012F00047C0E9E3F0E08081282F30E08B81882F20
:1013000090E0A90102C0559547958A95E2F7CA0178
:101310008170898335C0E6E3F0E08081282F30E0DA
:101320008B81882F90E0A90102C0559547958A9539
:10133000E2F7CA018170898323C0E3E3F0E0808192
:10134000282F30E08B81882F90E0A90102C05595AD
:1013500047958A95E2F7CA018170898311C0E0E35D
:10136000F0E08081282F30E08B81882F90E0A90168
:1013700002C0559547958A95E2F7CA018170898325
:1013800089810F900F900F900F900F90CF91DF9168
:101390000895DF93CF9300D000D0CDB7DEB7898317
:1013A0006A838981282F30E03C832B838B819C8149
:1013B00081309105D1F02B813C81223031052CF414
:1013C0008B819C81009761F01EC02B813C81223073
:1013D000310581F08B819C818330910581F013C0B0
:1013E000EBE3F0E08A8180830EC0E8E3F0E08A81DD
:1013F000808309C0E5E3F0E08A81808304C0E2E3F2
:10140000F0E08A8180830F900F900F900F90CF9122
:10141000DF910895DF93CF9300D000D0CDB7DEB732
:1014200089836A838981282F30E03C832B838B81D9
:101430009C8181309105D1F02B813C812230310596
:101440002CF48B819C81009761F01EC02B813C8124
:101450002230310581F08B819C818330910581F0B0
:1014600013C0EAE3F0E08A8180830EC0E7E3F0E096
:101470008A81808309C0E4E3F0E08A81808304C02C
:10148000E1E3F0E08A8180830F900F900F900F903E
:10149000CF91DF910895DF93CF93CDB7DEB7AFE55E
:1014A000B0E0EFE5F0E0808180688C93CF91DF9130
:1014B0000895DF93CF93CDB7DEB7AFE5B0E0EFE5AA
:1014C000F0E080818F778C93CF91DF910895DF9347
:1014D000CF9300D0CDB7DEB78A838A81882F90E082
:1014E000AA2797FDA095BA2FBC01CD010E945504F3
:1014F000DC01CB01BC01CD012AE037ED43E250E431
:101500000E941F02DC01CB01BC01CD010E944900F9
:10151000DC01CB01898389810E94C00B8981882FDE
:1015200090E00E94EA0D0F900F90CF91DF91089507
:10153000DF93CF93CDB7DEB780E062E040E00E945A
:10154000230780E063E040E00E94230780E060E042
:1015500040E00E94230780E061E041E00E94230711
:10156000CF91DF910895DF93CF93CDB7DEB780E0C1
:1015700062E040E00E94230780E063E041E00E94D7
:10158000230780E060E040E00E94230780E061E004
:1015900040E00E942307CF91DF910895DF93CF931E
:1015A000CDB7DEB780E062E040E00E94230780E034
:1015B00063E041E00E94230780E060E040E00E9499
:1015C000230780E061E041E00E942307CF91DF9193
:1015D0000895DF93CF93CDB7DEB780E062E041E0BE
:1015E0000E94230780E063E040E00E94230780E040
:1015F00060E041E00E94230780E061E040E00E945B
:101600002307CF91DF910895DF93CF93CDB7DEB756
:1016100080E062E040E00E94230780E063E040E079
:101620000E94230780E060E040E00E94230780E002
:1016300061E040E00E942307CF91DF910895DF939E
:10164000CF9300D000D0CDB7DEB79C838B838B8146
:101650009C81AA2797FDA095BA2FBC01CD010E94BD
:101660005504DC01CB01BC01CD012FE832EC41E394
:1016700051E40E941F02DC01CB01BC01CD010E949C
:10168000B304DC01CB0184529A4F9A838983898108
:101690009A810E94130D0F900F900F900F90CF9191
:1016A000DF910895DF93CF93CDB7DEB7A3E5B0E028
:1016B000E3E5F0E0808188608C93A3E5B0E0E3E5AA
:1016C000F0E0808180648C93A3E5B0E0E3E5F0E096
:1016D00080818F7C8C93A3E5B0E0E3E5F0E080812E
:1016E00080628C93ECE5F0E01082A3E5B0E0E3E5E6
:1016F000F0E08081887F8C93A3E5B0E0E3E5F0E043
:10170000808185608C93CF91DF910895DF93CF9393
:101710000F92CDB7DEB78983E2E5F0E0898180835F
:101720000F90CF91DF910895DF93CF9300D0CDB785
:10173000DEB79A83898389819A81009731F0898104
:101740009A819093DB018093DA010F900F90CF91F3
:10175000DF910895DF93CF9300D0CDB7DEB79A83A2
:10176000898389819A81009731F089819A81909348
:10177000DD018093DC010F900F90CF91DF910895F0
:10178000DF93CF930F92CDB7DEB78983ECE5F0E01E
:10179000898180830F90CF91DF910895DF93CF935C
:1017A000CDB7DEB7A3E5B0E0E3E5F0E08081887F68
:1017B0008C93CF91DF9108951F920F920FB60F92E5
:1017C00011242F933F934F935F936F937F938F9346
:1017D0009F93AF93BF93EF93FF93DF93CF93CDB7D7
:1017E000DEB78091DA019091DB01009729F0E0915A
:1017F000DA01F091DB010995CF91DF91FF91EF9133
:10180000BF91AF919F918F917F916F915F914F9118
:101810003F912F910F900FBE0F901F9018951F9220
:101820000F920FB60F9211242F933F934F935F9314
:101830006F937F938F939F93AF93BF93EF93FF9398
:10184000DF93CF93CDB7DEB78091DC019091DD01BE
:10185000009729F0E091DC01F091DD010995CF912D
:10186000DF91FF91EF91BF91AF919F918F917F9108
:101870006F915F914F913F912F910F900FBE0F90FD
:101880001F901895DF93CF930F92CDB7DEB7898362
:101890008981882341F4AEE4B0E0EEE4F0E0808199
:1018A0008F7B8C9307C0AEE4B0E0EEE4F0E0808183
:1018B00080648C930F90CF91DF910895DF93CF9345
:1018C00000D0CDB7DEB7E6E4F0E0808191819A8365
:1018D0008983A8E5B0E0E8E5F0E0808180628C9340
:1018E00089819A810F900F90CF91DF910895DF93B6
:1018F000CF93CDB7DEB7AFE4B0E0EFE4F0E08081A6
:101900008F738C93AFE4B0E0EFE4F0E080818F7CE4
:101910008C93AFE4B0E0EFE4F0E080818C93AFE42F
:10192000B0E0EFE4F0E0808180628C93AFE4B0E05F
:10193000EFE4F0E080818C7F8C93AFE4B0E0EFE4E3
:10194000F0E0808183608C93AEE4B0E0EEE4F0E000
:101950008081877E8C93AEE4B0E0EEE4F0E080819D
:1019600088618C93EAE4F0E080E29EE491838083D6
:10197000E8E4F0E080ED97E091838083E6E4F0E036
:1019800011821082A9E5B0E0E9E5F0E080818F7D69
:101990008C93A9E5B0E0E9E5F0E080818F7E8C933F
:1019A000A9E5B0E0E9E5F0E08081877F8C93A9E5C7
:1019B000B0E0E9E5F0E0808184608C93AEE4B0E0D3
:1019C000EEE4F0E08081887F8C93AEE4B0E0EEE45A
:1019D000F0E0808182608C93CF91DF910895DF9356
:1019E000CF9300D0CDB7DEB79A838983E6E4F0E0E9
:1019F00089819A81918380830F900F90CF91DF919D
:101A00000895DF93CF9300D0CDB7DEB79A83898353
:101A1000EAE4F0E089819A81918380830F900F90AE
:101A2000CF91DF910895DF93CF9300D0CDB7DEB78C
:101A30009A838983E8E4F0E089819A8191838083A5
:101A40000F900F90CF91DF910895DF93CF9300D047
:101A5000CDB7DEB79A83898389819A81009731F067
:101A600089819A819093DF018093DE010F900F901E
:101A7000CF91DF910895DF93CF93CDB7DEB7AEE47A
:101A8000B0E0EEE4F0E08081887F8C93CF91DF912D
:101A900008951F920F920FB60F9211242F933F9328
:101AA0004F935F936F937F938F939F93AF93BF9366
:101AB000EF93FF93DF93CF93CDB7DEB78091DE0135
:101AC0009091DF01009729F0E091DE01F091DF01B4
:101AD0000995CF91DF91FF91EF91BF91AF919F91C8
:101AE0008F917F916F915F914F913F912F910F90C7
:101AF0000FBE0F901F901895DF93CF93CDB7DEB731
:101B0000A5E4B0E0E5E4F0E0808180648C93A5E496
:101B1000B0E0E5E4F0E0808188608C93A5E4B0E07B
:101B2000E5E4F0E080818F7C8C93A5E4B0E0E5E40F
:101B3000F0E0808180628C93E3E4F0E01082A5E421
:101B4000B0E0E5E4F0E08081887F8C93A5E4B0E02C
:101B5000E5E4F0E0808187608C93CF91DF91089578
:101B6000DF93CF930F92CDB7DEB78983E4E4F0E043
:101B7000898180830F90CF91DF910895DF93CF9378
:101B800000D0CDB7DEB79A83898389819A81009787
:101B900031F089819A819093E1018093E0010F9067
:101BA0000F90CF91DF910895DF93CF9300D0CDB701
:101BB000DEB79A83898389819A81009731F0898180
:101BC0009A819093E3018093E2010F900F90CF915F
:101BD000DF910895DF93CF930F92CDB7DEB789835E
:101BE000E3E4F0E0898180830F90CF91DF91089545
:101BF000DF93CF93CDB7DEB7A5E4B0E0E5E4F0E046
:101C00008081887F8C93CF91DF9108951F920F92EE
:101C10000FB60F9211242F933F934F935F936F93BF
:101C20007F938F939F93AF93BF93EF93FF93DF9334
:101C3000CF93CDB7DEB78091E0019091E10100979D
:101C400029F0E091E001F091E1010995CF91DF9158
:101C5000FF91EF91BF91AF919F918F917F916F9184
:101C60005F914F913F912F910F900FBE0F901F905A
:101C700018951F920F920FB60F9211242F933F9336
:101C80004F935F936F937F938F939F93AF93BF9384
:101C9000EF93FF93DF93CF93CDB7DEB78091E2014F
:101CA0009091E301009729F0E091E201F091E301C6
:101CB0000995CF91DF91FF91EF91BF91AF919F91E6
:101CC0008F917F916F915F914F913F912F910F90E5
:101CD0000FBE0F901F901895DF93CF93CDB7DEB74F
:101CE000ABE2B0E0EBE2F0E080818D7F8C93EAE242
:101CF000F0E088E18083E0E4F0E086E88083E9E2D8
:101D0000F0E083E38083E0E4F0E01082CF91DF91A4
:101D10000895DF93CF930F92CDB7DEB78983EBE2BF
:101D2000F0E08081829586958770882F90E08170A1
:101D300090700097A1F3ECE2F0E089818083EBE200
:101D4000F0E08081829586958770882F90E0817081
:101D500090700097A1F3ABE2B0E0EBE2F0E080819D
:101D600080648C930F90CF91DF910895DF93CF9390
:101D700000D00F92CDB7DEB78B831A82198205C0CF
:101D800089819A8101969A838983EBE2F0E08081D0
:101D9000829586958770882F90E08170907000976B
:101DA00079F31A821982ECE2F0E08B81808305C01E
:101DB00089819A8101969A838983EBE2F0E08081A0
:101DC0008295869586958370882F90E081709070BB
:101DD000009771F3ABE2B0E0EBE2F0E08081806469
:101DE0008C930F900F900F90CF91DF910895DF9318
:101DF000CF930F92CDB7DEB78983ECE2F0E0898113
:101E000080830F90CF91DF910895DF93CF930F924E
:101E1000CDB7DEB78FEF8983EBE2F0E080818823D6
:101E2000DCF7ECE2F0E08081898389810F90CF912B
:101E3000DF910895DF93CF9300D00F92CDB7DEB737
:101E40008FEF8B831A82198205C089819A8101964E
:101E50009A838983EBE2F0E080818823B4F7ECE297
:101E6000F0E080818B838B810F900F900F90CF914A
:101E7000DF910895DF93CF93CDB7DEB7ECE2F0E0CA
:101E80008081CF91DF910895DF93CF9300D00F929F
:101E9000CDB7DEB79B838A8319820EC08981282F34
:101EA00030E08A819B81FC01E20FF31F80810E9458
:101EB000890E89818F5F89838981282F30E08A810B
:101EC0009B81FC01E20FF31F8081882339F70F907B
:101ED0000F900F90CF91DF910895DF93CF93CDB7FF
:101EE000DEB7AC970FB6F894DEBF0FBECDBF80E073
:101EF00090E0A8ECB2E48BA39CA3ADA3BEA36BA11E
:101F00007CA18DA19EA120E030E04AEF54E40E9424
:101F10001F02DC01CB018F8F98A3A9A3BAA36F8DF9
:101F200078A189A19AA120E030E040E85FE30E9417
:101F3000250488232CF481E090E09E8F8D8F3FC094
:101F40006F8D78A189A19AA120E03FEF4FE757E478
:101F50000E94C50318164CF56BA17CA18DA19EA112
:101F600020E030E040E251E40E941F02DC01CB019E
:101F7000BC01CD010E944900DC01CB019E8F8D8FF9
:101F80000FC088EC90E09C8F8B8F8B8D9C8D019780
:101F9000F1F79C8F8B8F8D8D9E8D01979E8F8D8FEE
:101FA0008D8D9E8D009769F714C06F8D78A189A1E2
:101FB0009AA10E944900DC01CB019E8F8D8F8D8DEF
:101FC0009E8D9A8F898F898D9A8D0197F1F79A8FBF
:101FD000898F18A61FA283E065E041E00E942307D5
:101FE00080E090E0A0EAB1E48D8B9E8BAF8BB88F40
:101FF0006D897E898F89988D2BEA3AEA4AE250E40E
:102000000E941F02DC01CB01898B9A8BAB8BBC8BAE
:1020100069897A898B899C8920E030E040E85FE318
:102020000E94250488231CF481E0888B91C0698973
:102030007A898B899C8920E030E04FE753E40E9445
:10204000C50318160CF07BC06D897E898F89988D29
:1020500020E030E04AE754E40E941903DC01CB01A0
:102060008C879D87AE87BF876C857D858E859F8594
:1020700020E030E04AEF54E40E941F02DC01CB0173
:1020800088879987AA87BB87688579858A859B8594
:1020900020E030E040E85FE30E94250488232CF430
:1020A00081E090E09F838E833FC0688579858A8533
:1020B0009B8520E03FEF4FE757E40E94C5031816C9
:1020C0004CF56C857D858E859F8520E030E040E273
:1020D00051E40E941F02DC01CB01BC01CD010E9432
:1020E0004900DC01CB019F838E830FC088EC90E018
:1020F0009D838C838C819D810197F1F79D838C83D7
:102100008E819F8101979F838E838E819F8100970F
:1021100069F724C0688579858A859B850E94490076
:10212000DC01CB019F838E838E819F819B838A8379
:102130008A819B810197F1F79B838A830FC069890C
:102140007A898B899C890E944900DC01CB01888BAC
:102150008889898389818A95F1F7898383E065E09D
:1021600040E00E942307AEE4B0E0EEE4F0E08081BE
:1021700080648C93E8E5F0E08081882F90E08072A5
:1021800090700097B9F383E066E041E00E94230776
:10219000E6E4F0E0808191819CA78BA7A8E5B0E000
:1021A000E8E5F0E0808180628C93AEE4B0E0EEE49C
:1021B000F0E080818F7B8C93E8E5F0E08081882FD0
:1021C00090E0807290700097B9F3E6E4F0E08081CF
:1021D00091819AA789A7A8E5B0E0E8E5F0E08081C1
:1021E00080628C9329A53AA58BA59CA5A901481BC3
:1021F000590BCA012AE330E0B9010E947F14CB01D8
:1022000098A78FA38FA198A5AC960FB6F894DEBFC0
:102210000FBECDBFCF91DF9108950F931F93DF9332
:10222000CF93CDB7DEB7CD54D0400FB6F894DEBF14
:102230000FBECDBF0E94FC060E94520B0E94770C7D
:102240000E947C0D0E946C0EFE01E75BFF4F80E355
:10225000808380E090E00E941F0B0E94050F813375
:10226000E1F780E690E00E94440F80E990E00E9450
:10227000440F06C00E94050FFE01E75BFF4F8083FD
:10228000FE01E75BFF4F8081813461F0FE01E75B77
:10229000FF4F8081823431F0FE01E75BFF4F808188
:1022A000833441F7FE01E75BFF4F8081282F30E048
:1022B0002E963FAF2EAF2E972E968EAD9FAD2E97BA
:1022C0008234910509F45CC02E96EEADFFAD2E97D9
:1022D000E334F10509F4DCC22E962EAD3FAD2E9706
:1022E0002134310509F0B9CF0E94040B8FE990E049
:1022F0000E94440F88E20E94670A0E94050FE82F9F
:10230000F0E02C96FFAFEEAF2C972C962EAD3FADA4
:102310002C972C34310541F12C968EAD9FAD2C9726
:102320008D3491057CF42C96EEADFFAD2C97E23404
:10233000F10501F12C962EAD3FAD2C9726343105D9
:10234000B1F0D8CF2C968EAD9FAD2C9782359105EC
:1023500041F02C96EEADFFAD2C97E335F10569F019
:10236000C9CF0E94B30AC6CF0E94980AC3CF0E9469
:10237000CE0AC0CF0E94E90ABDCF0E94040BBACF9B
:102380008FEA90E00E94440F88E20E94670A0E9450
:10239000CE0A0E946D0F84319105D8F70E94E90A98
:1023A000FE01ED5BFF4F80E090E0A8ECB2E480839B
:1023B0009183A283B3838E01015C1F4FFE01ED5B0D
:1023C000FF4F608171818281938120E030E04AEF8C
:1023D00054E40E941F02DC01CB01F8018083918349
:1023E000A283B383FE01FF96608171818281938114
:1023F00020E030E040E85FE30E94250488232CF4CD
:1024000081E090E09EAF8DAF46C0FE01FF966081F7
:1024100071818281938120E03FEF4FE757E40E9472
:10242000C503181664F5FE01ED5BFF4F60817181F5
:102430008281938120E030E040E251E40E941F025B
:10244000DC01CB01BC01CD010E944900DC01CB01C4
:102450009EAF8DAF0FC088EC90E09CAF8BAF8BAD83
:102460009CAD0197F1F79CAF8BAF8DAD9EAD019701
:102470009EAF8DAF8DAD9EAD009769F716C0FE0182
:10248000FF9660817181828193810E944900DC0105
:10249000CB019EAF8DAF8DAD9EAD9AAF89AF89ADAB
:1024A0009AAD0197F1F79AAF89AF0E94040B8AE5C4
:1024B00090E00E941F0B80E090E0AAE7B4E48DABAF
:1024C0009EABAFABB8AF6DA97EA98FA998AD20E048
:1024D00030E04AEF54E40E941F02DC01CB0189ABDB
:1024E0009AABABABBCAB69A97AA98BA99CA920E03C
:1024F00030E040E85FE30E94250488232CF481E06B
:1025000090E098AB8FA73FC069A97AA98BA99CA935
:1025100020E03FEF4FE757E40E94C50318164CF543
:102520006DA97EA98FA998AD20E030E040E251E48A
:102530000E941F02DC01CB01BC01CD010E944900B9
:10254000DC01CB0198AB8FA70FC088EC90E09EA771
:102550008DA78DA59EA50197F1F79EA78DA78FA5A5
:1025600098A9019798AB8FA78FA598A9009769F7AD
:1025700014C069A97AA98BA99CA90E944900DC0111
:10258000CB0198AB8FA78FA598A99CA78BA78BA5EC
:102590009CA50197F1F79CA78BA70E946D0FFE01E8
:1025A000E85BFF4F808386EA9FEF0E941F0B80E06D
:1025B00090E0AAE7B4E48FA398A7A9A7BAA76FA150
:1025C00078A589A59AA520E030E04AEF54E40E945E
:1025D0001F02DC01CB018BA39CA3ADA3BEA36BA107
:1025E0007CA18DA19EA120E030E040E85FE30E9445
:1025F000250488232CF481E090E09AA389A33FC0AE
:102600006BA17CA18DA19EA120E03FEF4FE757E495
:102610000E94C50318164CF56FA178A589A59AA547
:1026200020E030E040E251E40E941F02DC01CB01D7
:10263000BC01CD010E944900DC01CB019AA389A312
:102640000FC088EC90E098A38F8F8F8D98A1019791
:10265000F1F798A38F8F89A19AA101979AA389A3D3
:1026600089A19AA1009769F714C06BA17CA18DA1E3
:102670009EA10E944900DC01CB019AA389A389A1F4
:102680009AA19E8F8D8F8D8D9E8D0197F1F79E8FD4
:102690008D8F0E946D0FFE01E95BFF4F808380E00C
:1026A00090E00E941F0BFE01E85BFF4FDE01A95B7B
:1026B000BF4F90818C91981708F475C00E94980ABA
:1026C00080E090E0AAE7B4E4898F9A8FAB8FBC8F4B
:1026D000698D7A8D8B8D9C8D20E030E04AEF54E43B
:1026E0000E941F02DC01CB018D8B9E8BAF8BB88FBC
:1026F0006D897E898F89988D20E030E040E85FE326
:102700000E94250488232CF481E090E09C8B8B8B25
:102710003FC06D897E898F89988D20E03FEF4FE71C
:1027200057E40E94C50318164CF5698D7A8D8B8D80
:102730009C8D20E030E040E251E40E941F02DC0169
:10274000CB01BC01CD010E944900DC01CB019C8B77
:102750008B8B0FC088EC90E09A8B898B89899A8942
:102760000197F1F79A8B898B8B899C8901979C8BB8
:102770008B8B8B899C89009769F706CE6D897E8942
:102780008F89988D0E944900DC01CB019C8B8B8B3B
:102790008B899C89988B8F878F8598890197F1F712
:1027A000988B8F87F1CD0E94B30A80E090E0AAE772
:1027B000B4E48B879C87AD87BE876B857C858D85D0
:1027C0009E8520E030E04AEF54E40E941F02DC01C5
:1027D000CB018F839887A987BA876F817885898590
:1027E0009A8520E030E040E85FE30E9425048823DA
:1027F0002CF481E090E09E838D833FC06F817885CB
:1028000089859A8520E03FEF4FE757E40E94C50392
:1028100018164CF56B857C858D859E8520E030E013
:1028200040E251E40E941F02DC01CB01BC01CD015A
:102830000E944900DC01CB019E838D830FC088EC90
:1028400090E09C838B838B819C810197F1F79C8323
:102850008B838D819E8101979E838D838D819E8147
:10286000009769F791CD6F81788589859A850E9457
:102870004900DC01CB019E838D838D819E819A83EB
:10288000898389819A810197F1F79A8389837CCD25
:102890008EEB90E00E94440F84E10E94670A83E07F
:1028A00062E00E944F09813049F483E063E00E94B6
:1028B0004F09813019F40E94CE0AEECF83E062E026
:1028C0000E944F09882349F483E063E00E944F0986
:1028D000813019F40E94980ADFCF83E062E00E9401
:1028E0004F09813049F483E063E00E944F09882357
:1028F00019F40E94B30AD0CF0E94040BCDCFAA1BBB
:10290000BB1B51E107C0AA1FBB1FA617B70710F0DA
:10291000A61BB70B881F991F5A95A9F7809590950C
:10292000BC01CD0108952F923F924F925F926F921A
:102930007F928F929F92AF92BF92CF92DF92EF924F
:10294000FF920F931F93CF93DF93CDB7DEB7CA1BD0
:10295000DB0B0FB6F894DEBF0FBECDBF09942A88FB
:10296000398848885F846E847D848C849B84AA84A3
:10297000B984C884DF80EE80FD800C811B81AA8130
:10298000B981CE0FD11D0FB6F894DEBF0FBECDBFFB
:08299000ED010895F894FFCF5A
:102998004129436F6E74726F6C6C65720A422941EB
:1029A800766F6964204F62737461636C65730A4360
:1029B800294C696E6520466F6C6C6F7765720A00EA
:1029C80057616E746564204D6F6465203A2000433A
:1029D8006F6E746F6C6C6572204D6F64650A004F82
:1029E80062737461636C65204D6F64650A004C699D
:1029F8006E6520466F6C6C6F776572204D6F6465ED
:102A08000A000000000000000000000102020303A9
:102A1800030304040404040404040505050505056A
:102A28000505050505050505050506060606060648
:102A3800060606060606060606060606060606062E
:102A48000606060606060606060607070707070718
:102A580007070707070707070707070707070707FE
:102A680007070707070707070707070707070707EE
:102A780007070707070707070707070707070707DE
:102A880007070707070707070707080808080808C8
:102A980008080808080808080808080808080808AE
:102AA800080808080808080808080808080808089E
:102AB800080808080808080808080808080808088E
:102AC800080808080808080808080808080808087E
:102AD800080808080808080808080808080808086E
:102AE800080808080808080808080808080808085E
:102AF800080808080808080808080808080808084E
:0A2B08000808080808080808080873
:00000001FF
